{
  "_format": "hh-sol-artifact-1",
  "contractName": "Assessment",
  "sourceName": "contracts/Assessment.sol",
  "abi": [
    {
      "inputs": [
        {
          "internalType": "uint256",
          "name": "initBalance",
          "type": "uint256"
        }
      ],
      "stateMutability": "payable",
      "type": "constructor"
    },
    {
      "inputs": [
        {
          "internalType": "uint256",
          "name": "balance",
          "type": "uint256"
        },
        {
          "internalType": "uint256",
          "name": "withdrawAmount",
          "type": "uint256"
        }
      ],
      "name": "InsufficientBalance",
      "type": "error"
    },
    {
      "anonymous": false,
      "inputs": [
        {
          "indexed": false,
          "internalType": "uint256",
          "name": "amount",
          "type": "uint256"
        }
      ],
      "name": "Deposit",
      "type": "event"
    },
    {
      "anonymous": false,
      "inputs": [
        {
          "indexed": false,
          "internalType": "uint256",
          "name": "amount",
          "type": "uint256"
        }
      ],
      "name": "Withdraw",
      "type": "event"
    },
    {
      "inputs": [],
      "name": "balance",
      "outputs": [
        {
          "internalType": "uint256",
          "name": "",
          "type": "uint256"
        }
      ],
      "stateMutability": "view",
      "type": "function"
    },
    {
      "inputs": [
        {
          "internalType": "uint256",
          "name": "_amount",
          "type": "uint256"
        }
      ],
      "name": "deposit",
      "outputs": [],
      "stateMutability": "payable",
      "type": "function"
    },
    {
      "inputs": [],
      "name": "getBalance",
      "outputs": [
        {
          "internalType": "uint256",
          "name": "",
          "type": "uint256"
        }
      ],
      "stateMutability": "view",
      "type": "function"
    },
    {
      "inputs": [],
      "name": "getTransactionHistory",
      "outputs": [
        {
          "components": [
            {
              "internalType": "uint256",
              "name": "amount",
              "type": "uint256"
            },
            {
              "internalType": "string",
              "name": "txnType",
              "type": "string"
            },
            {
              "internalType": "uint256",
              "name": "timestamp",
              "type": "uint256"
            }
          ],
          "internalType": "struct Assessment.Transaction[]",
          "name": "",
          "type": "tuple[]"
        }
      ],
      "stateMutability": "view",
      "type": "function"
    },
    {
      "inputs": [],
      "name": "owner",
      "outputs": [
        {
          "internalType": "address payable",
          "name": "",
          "type": "address"
        }
      ],
      "stateMutability": "view",
      "type": "function"
    },
    {
      "inputs": [
        {
          "internalType": "uint256",
          "name": "_limit",
          "type": "uint256"
        }
      ],
      "name": "setWithdrawalLimit",
      "outputs": [],
      "stateMutability": "nonpayable",
      "type": "function"
    },
    {
      "inputs": [
        {
          "internalType": "uint256",
          "name": "",
          "type": "uint256"
        }
      ],
      "name": "transactions",
      "outputs": [
        {
          "internalType": "uint256",
          "name": "amount",
          "type": "uint256"
        },
        {
          "internalType": "string",
          "name": "txnType",
          "type": "string"
        },
        {
          "internalType": "uint256",
          "name": "timestamp",
          "type": "uint256"
        }
      ],
      "stateMutability": "view",
      "type": "function"
    },
    {
      "inputs": [
        {
          "internalType": "uint256",
          "name": "_withdrawAmount",
          "type": "uint256"
        }
      ],
      "name": "withdraw",
      "outputs": [],
      "stateMutability": "nonpayable",
      "type": "function"
    },
    {
      "inputs": [],
      "name": "withdrawalLimit",
      "outputs": [
        {
          "internalType": "uint256",
          "name": "",
          "type": "uint256"
        }
      ],
      "stateMutability": "view",
      "type": "function"
    }
  ],
  "bytecode": "0x60806040526040516200123238038062001232833981810160405281019061002791906100b7565b336000806101000a81548173ffffffffffffffffffffffffffffffffffffffff021916908373ffffffffffffffffffffffffffffffffffffffff160217905550806001819055506000600281905550506100e4565b600080fd5b6000819050919050565b61009481610081565b811461009f57600080fd5b50565b6000815190506100b18161008b565b92915050565b6000602082840312156100cd576100cc61007c565b5b60006100db848285016100a2565b91505092915050565b61113e80620000f46000396000f3fe6080604052600436106100865760003560e01c80638da5cb5b116100595780638da5cb5b146101335780639ace38c21461015e578063b69ef8a81461019d578063b6b55f25146101c8578063b76d4fc3146101e457610086565b806312065fe01461008b5780632e1a7d4d146100b65780635a0768ce146100df5780637ddfe78d14610108575b600080fd5b34801561009757600080fd5b506100a061020f565b6040516100ad91906108b8565b60405180910390f35b3480156100c257600080fd5b506100dd60048036038101906100d89190610904565b610219565b005b3480156100eb57600080fd5b5061010660048036038101906101019190610904565b610463565b005b34801561011457600080fd5b5061011d6104fb565b60405161012a91906108b8565b60405180910390f35b34801561013f57600080fd5b50610148610501565b6040516101559190610972565b60405180910390f35b34801561016a57600080fd5b5061018560048036038101906101809190610904565b610525565b60405161019493929190610a1d565b60405180910390f35b3480156101a957600080fd5b506101b26105e7565b6040516101bf91906108b8565b60405180910390f35b6101e260048036038101906101dd9190610904565b6105ed565b005b3480156101f057600080fd5b506101f961079a565b6040516102069190610bc6565b60405180910390f35b6000600154905090565b60008054906101000a900473ffffffffffffffffffffffffffffffffffffffff1673ffffffffffffffffffffffffffffffffffffffff163373ffffffffffffffffffffffffffffffffffffffff16146102a7576040517f08c379a000000000000000000000000000000000000000000000000000000000815260040161029e90610c5a565b60405180910390fd5b600060025414806102ba57506002548111155b6102f9576040517f08c379a00000000000000000000000000000000000000000000000000000000081526004016102f090610cec565b60405180910390fd5b6000600154905081600154101561034b57600154826040517fcf479181000000000000000000000000000000000000000000000000000000008152600401610342929190610d0c565b60405180910390fd5b816001600082825461035d9190610d64565b92505081905550600360405180606001604052808481526020016040518060400160405280600881526020017f576974686472617700000000000000000000000000000000000000000000000081525081526020014281525090806001815401808255809150506001900390600052602060002090600302016000909190919091506000820151816000015560208201518160010190816103fe9190610fd3565b5060408201518160020155505081816104179190610d64565b60015414610428576104276110a5565b5b7f5b6b431d4476a211bb7d41c20d1aab9ae2321deee0d20be3d9fc9b1093fa6e3d8260405161045791906108b8565b60405180910390a15050565b60008054906101000a900473ffffffffffffffffffffffffffffffffffffffff1673ffffffffffffffffffffffffffffffffffffffff163373ffffffffffffffffffffffffffffffffffffffff16146104f1576040517f08c379a00000000000000000000000000000000000000000000000000000000081526004016104e890610c5a565b60405180910390fd5b8060028190555050565b60025481565b60008054906101000a900473ffffffffffffffffffffffffffffffffffffffff1681565b6003818154811061053557600080fd5b906000526020600020906003020160009150905080600001549080600101805461055e90610df6565b80601f016020809104026020016040519081016040528092919081815260200182805461058a90610df6565b80156105d75780601f106105ac576101008083540402835291602001916105d7565b820191906000526020600020905b8154815290600101906020018083116105ba57829003601f168201915b5050505050908060020154905083565b60015481565b6000600154905060008054906101000a900473ffffffffffffffffffffffffffffffffffffffff1673ffffffffffffffffffffffffffffffffffffffff163373ffffffffffffffffffffffffffffffffffffffff1614610682576040517f08c379a000000000000000000000000000000000000000000000000000000000815260040161067990610c5a565b60405180910390fd5b816001600082825461069491906110d4565b92505081905550600360405180606001604052808481526020016040518060400160405280600781526020017f4465706f7369740000000000000000000000000000000000000000000000000081525081526020014281525090806001815401808255809150506001900390600052602060002090600302016000909190919091506000820151816000015560208201518160010190816107359190610fd3565b50604082015181600201555050818161074e91906110d4565b6001541461075f5761075e6110a5565b5b7f4d6ce1e535dbade1c23defba91e23b8f791ce5edc0cc320257a2b364e4e384268260405161078e91906108b8565b60405180910390a15050565b60606003805480602002602001604051908101604052809291908181526020016000905b828210156108965783829060005260206000209060030201604051806060016040529081600082015481526020016001820180546107fb90610df6565b80601f016020809104026020016040519081016040528092919081815260200182805461082790610df6565b80156108745780601f1061084957610100808354040283529160200191610874565b820191906000526020600020905b81548152906001019060200180831161085757829003601f168201915b50505050508152602001600282015481525050815260200190600101906107be565b50505050905090565b6000819050919050565b6108b28161089f565b82525050565b60006020820190506108cd60008301846108a9565b92915050565b600080fd5b6108e18161089f565b81146108ec57600080fd5b50565b6000813590506108fe816108d8565b92915050565b60006020828403121561091a576109196108d3565b5b6000610928848285016108ef565b91505092915050565b600073ffffffffffffffffffffffffffffffffffffffff82169050919050565b600061095c82610931565b9050919050565b61096c81610951565b82525050565b60006020820190506109876000830184610963565b92915050565b600081519050919050565b600082825260208201905092915050565b60005b838110156109c75780820151818401526020810190506109ac565b60008484015250505050565b6000601f19601f8301169050919050565b60006109ef8261098d565b6109f98185610998565b9350610a098185602086016109a9565b610a12816109d3565b840191505092915050565b6000606082019050610a3260008301866108a9565b8181036020830152610a4481856109e4565b9050610a5360408301846108a9565b949350505050565b600081519050919050565b600082825260208201905092915050565b6000819050602082019050919050565b610a908161089f565b82525050565b600082825260208201905092915050565b6000610ab28261098d565b610abc8185610a96565b9350610acc8185602086016109a9565b610ad5816109d3565b840191505092915050565b6000606083016000830151610af86000860182610a87565b5060208301518482036020860152610b108282610aa7565b9150506040830151610b256040860182610a87565b508091505092915050565b6000610b3c8383610ae0565b905092915050565b6000602082019050919050565b6000610b5c82610a5b565b610b668185610a66565b935083602082028501610b7885610a77565b8060005b85811015610bb45784840389528151610b958582610b30565b9450610ba083610b44565b925060208a01995050600181019050610b7c565b50829750879550505050505092915050565b60006020820190508181036000830152610be08184610b51565b905092915050565b7f596f7520617265206e6f7420746865206f776e6572206f66207468697320616360008201527f636f756e74000000000000000000000000000000000000000000000000000000602082015250565b6000610c44602583610998565b9150610c4f82610be8565b604082019050919050565b60006020820190508181036000830152610c7381610c37565b9050919050565b7f5769746864726177616c20616d6f756e7420657863656564732074686520736560008201527f74206c696d697400000000000000000000000000000000000000000000000000602082015250565b6000610cd6602783610998565b9150610ce182610c7a565b604082019050919050565b60006020820190508181036000830152610d0581610cc9565b9050919050565b6000604082019050610d2160008301856108a9565b610d2e60208301846108a9565b9392505050565b7f4e487b7100000000000000000000000000000000000000000000000000000000600052601160045260246000fd5b6000610d6f8261089f565b9150610d7a8361089f565b9250828203905081811115610d9257610d91610d35565b5b92915050565b7f4e487b7100000000000000000000000000000000000000000000000000000000600052604160045260246000fd5b7f4e487b7100000000000000000000000000000000000000000000000000000000600052602260045260246000fd5b60006002820490506001821680610e0e57607f821691505b602082108103610e2157610e20610dc7565b5b50919050565b60008190508160005260206000209050919050565b60006020601f8301049050919050565b600082821b905092915050565b600060088302610e897fffffffffffffffffffffffffffffffffffffffffffffffffffffffffffffffff82610e4c565b610e938683610e4c565b95508019841693508086168417925050509392505050565b6000819050919050565b6000610ed0610ecb610ec68461089f565b610eab565b61089f565b9050919050565b6000819050919050565b610eea83610eb5565b610efe610ef682610ed7565b848454610e59565b825550505050565b600090565b610f13610f06565b610f1e818484610ee1565b505050565b5b81811015610f4257610f37600082610f0b565b600181019050610f24565b5050565b601f821115610f8757610f5881610e27565b610f6184610e3c565b81016020851015610f70578190505b610f84610f7c85610e3c565b830182610f23565b50505b505050565b600082821c905092915050565b6000610faa60001984600802610f8c565b1980831691505092915050565b6000610fc38383610f99565b9150826002028217905092915050565b610fdc8261098d565b67ffffffffffffffff811115610ff557610ff4610d98565b5b610fff8254610df6565b61100a828285610f46565b600060209050601f83116001811461103d576000841561102b578287015190505b6110358582610fb7565b86555061109d565b601f19841661104b86610e27565b60005b828110156110735784890151825560018201915060208501945060208101905061104e565b86831015611090578489015161108c601f891682610f99565b8355505b6001600288020188555050505b505050505050565b7f4e487b7100000000000000000000000000000000000000000000000000000000600052600160045260246000fd5b60006110df8261089f565b91506110ea8361089f565b925082820190508082111561110257611101610d35565b5b9291505056fea264697066735822122024d91ba928b2352662704b1f5437c04e57bb95c2d7f9cb231e771f8a7bdb4f3464736f6c63430008110033",
  "linkReferences": {},
  "deployedLinkReferences": {}
}